:020000040800F2
:1000000068070020CD1C0008413A0008433A000868
:10001000473A00084B3A00084F3A00080000000039
:10002000000000000000000000000000533A00083B
:10003000553A000800000000573A0008593A0008F5
:10004000E71C0008E71C0008E71C0008D73D000873
:10005000E71C0008E71C0008E71C0008E71C000874
:10006000E71C0008E71C0008E71C0008E71C000864
:10007000E71C0008E71C0008E71C0008E71C000854
:10008000E71C0008E71C0008E71C0008E71C000844
:10009000E71C0008E71C0008E71C0008E71C000834
:1000A000E71C0008E71C0008E71C0008E71C000824
:1000B000E71C0008E71C0008E71C0008E71C000814
:1000C000E71C0008E71C0008E71C0008E71C000804
:1000D000E71C0008B13C0008E71C0008E71C00080A
:1000E000E71C0008EB3D0008E71C000800F002F8E0
:1000F00000F092F80AA090E8000C82448344AAF130
:100100000107DA4501D100F087F8AFF2090EBAE82D
:100110000F0013F0010F18BFFB1A43F0010318473B
:100120001460000034600000103A24BF78C878C121
:10013000FAD8520724BF30C830C144BF04680C60ED
:10014000704700000023002400250026103A28BF35
:1001500078C1FBD8520728BF30C148BF0B60704739
:100160006E2904F07585702904F0EE86662905F085
:100170001A87652905F01787672905F01487612913
:10018000AFF3008003681B0A28BF41F08001692992
:1001900004F02485642904F02185752904F01E8566
:1001A0006F2904F07986782904F0BA86E92904F0E9
:1001B0001186E42904F00E86F52904F00B86EF2958
:1001C00004F07686F82904F0B9860368DB0928BFB5
:1001D00041F08001632904F08085732904F085854E
:1001E000E32905F06D81F32905F072810020704745
:1001F0001FB505F0D1FE05F0C9F90400002000216B
:1002000005F0B4FE401C60600020002105F098FE5F
:10021000E0601FBD10B510BD05F08AF91146FFF76B
:10022000E7FF01F073FD05F06BFA03B4FFF7F2FF8F
:1002300003BC03F0BDFC000000210020674A1268E7
:1002400042F48032654B1A6000BF644A126802F4BF
:100250000030491C10B9B1F5A06FF6D15F4A1268A1
:1002600012F4003F01D0012000E00020012842D11B
:100270005B4A126842F01002594B1A601A46126823
:1002800022F003021A601A46126842F002021A6053
:10029000524A5268514B5A601A4652685A601A467E
:1002A000526842F480625A601A46526822F47C1204
:1002B0005A601A46526842F4E8125A601A461268A6
:1002C00042F080721A6000BF444A126812F0007F48
:1002D000FAD0424A526822F00302404B5A601A4652
:1002E000526842F002025A6000BF3C4A526802F073
:1002F0000C02082AF9D1704710B5FFF79DFF10BD19
:1003000010B53648006840F00100344908600846DE
:10031000406834490840314948600846006832491D
:1003200008402E4908600846006820F480200860D4
:100330000846406820F4FE0048604FF41F008860C3
:10034000FFF7DAFF4FF000602849086010BD10B5D4
:10035000002100200022214B5B6803F00C0121B139
:10036000042906D0082928D107E0214B214C23601D
:1003700027E01F4B1F4C236023E0184B5B6803F4FE
:100380007010164B5B6803F48032022303EB90403D
:1003900022B9194B4343174C23600DE00F4B5B68A8
:1003A00013F4003F04D0144B4343124C236003E08A
:1003B0000F4B43430F4C236003E00D4B0D4C236068
:1003C00000BF00BF054B5B68C3F303130B4CE15C3C
:1003D000084B1B68CB40074C236010BD0010024047
:1003E000002002400000FFF8FFFFF6FE08ED00E0ED
:1003F00000127A000000002000093D0004000020E7
:1004000036490143364A1160704770B50021002318
:100410000F22C4784CB3324C246804F4E064C4F571
:10042000E0644FEA1421C1F1040322FA01F2447896
:1004300004FA03F1847804EA020444EA01014FEA71
:100440000111284C0678A155047804F01F054FF0DF
:10045000010404FA05F405784FEA65154FF0E0262B
:1004600006EB8505C5F8004109E0047804F01F0596
:100470000124AC401C4D0678761145F8264070BD2D
:100480001A4A0A4002431A4B1A60704741B1194A8E
:10049000126842EA00024FF0E023C3F8102D07E093
:1004A000144A126822EA00024FF0E023C3F8102D2C
:1004B0007047042808D14FF0E021096941F0040198
:1004C0004FF0E022116107E04FF0E021096921F0CF
:1004D00004014FF0E0221161704700000000FA05AE
:1004E0000CED00E000E400E080E100E080FFFF1F91
:1004F00008ED00E010ED00E010B50446CA48844263
:1005000008D10121042000F024FB0021042000F088
:1005100020FB46E0C548844208D10121082000F0B4
:1005200018FB0021082000F014FB3AE0C048844288
:1005300008D10121102000F00CFB0021102000F058
:1005400008FB2EE0BB48844208D10121202000F0A6
:1005500000FB0021202000F0FCFA22E0B648844293
:1005600008D10121402000F0F4FA0021402000F0E1
:10057000F0FA16E0B148844208D10121802000F051
:10058000E8FA0021802000F0E4FA0AE0AC48844256
:1005900007D10121801500F0DCFA0021A01500F040
:1005A000D8FA10BD10B50121084600F0D2FA00219A
:1005B000012000F0CEFA10BD2DE9F04102460025E1
:1005C0000026002000230024002791F803C00CF02F
:1005D0000F0591F803C01CF0100F03D091F802C072
:1005E0004CEA0505B1F800C01CF0FF0F31D01468CB
:1005F00000202BE04FF0010C0CFA00F3B1F800C022
:100600000CEA03069E4220D183004FF00F0C0CFA37
:1006100003F7BC4305FA03FC4CEA040491F803C059
:10062000BCF1280F06D14FF0010C0CFA00FCC2F807
:1006300014C00AE091F803C0BCF1480F05D14FF097
:10064000010C0CFA00FCC2F810C0401C0828D1D3E1
:100650001460B1F800C0BCF1FF0F34DD5468002015
:100660002EE000F1080C4FF0010808FA0CF3B1F885
:1006700000C00CEA03069E4221D183004FF00F0C0C
:100680000CFA03F7BC4305FA03FC4CEA040491F8A6
:1006900003C0BCF1280F05D100F1080C08FA0CF8D2
:1006A000C2F8148091F803C0BCF1480F07D100F1E3
:1006B000080C4FF0010808FA0CF8C2F81080401C32
:1006C0000828CED35460BDE8F0814FF6FF71018059
:1006D000022181700421C170704702460020936896
:1006E0000B4201D0012000E00020704701468868DD
:1006F00080B2704702460020D3680B4201D001202F
:1007000000E0002070470146C86880B27047016170
:100710007047416170470AB1016100E04161704773
:10072000C16070474FF480320A4382618161826107
:1007300082698269704702460020424B18684FF672
:100740008073184040EA021008433E4B186070471F
:100750003D49C8617047F0B50A46002300240021D6
:10076000002500F00046B6F1004F02D1354EF16988
:1007700001E0344E7168C0F3034583B200F44016C3
:10078000B6F5401F08D121F070612E4E766826F034
:1007900070662C4F7E6012E000F48016B6F5801F64
:1007A00006D1032606FA05F4A14341F0706106E084
:1007B000460D360103FA06F6B14341F0706122B1ED
:1007C000460D360103FA06F6314300F00046B6F155
:1007D000004F02D11B4EF16101E01A4E7160F0BD75
:1007E00030B500228B071C0F0F2303FA04F2154BC0
:1007F00008338C1053F824309343124C08348D1076
:1008000044F8253023468C1053F824308C07240FED
:1008100000FA04F423430B4C08348D1044F82530BF
:1008200030BD0A490860704700080140000C0140D3
:10083000001001400014014000180140001C01405C
:10084000002001400000014000002042DC00204266
:10085000DB48006840F00100D9490860084640685C
:10086000D8490840D649486008460068D64908403B
:10087000D34908600846006820F4802008600846D4
:10088000406820F4FE0048604FF41F008860704705
:10089000CB49096821F48031C94A116011460968C1
:1008A00021F480211160B0F5803F03D0B0F5802F96
:1008B0000ED106E0C249096841F48031C04A116096
:1008C00007E0BF49096841F4A021BD4A116000E07A
:1008D00000BF00BF704710B5014600220023002072
:1008E0004A11012A02D1B64C236806E0022A02D13D
:1008F000B34C236A01E0B24C636A01F01F02012489
:1009000094401C4201D0012000E0002010BD70B5D1
:1009100000240025002600BF3120FFF7DCFF06463B
:10092000641CB4F5A06F01D0002EF5D03120FFF784
:10093000D2FF08B1012500E00025284670BD014620
:1009400000209F4A106820F0F80040EAC1001060C3
:1009500070479E490860704702460020984B5868CF
:1009600020F47C1042EA01031843954B586070470D
:1009700096490866704701460020914A506820F069
:1009800003000843506070478D48406800F00C0039
:100990007047014600208A4A506820F0F000084362
:1009A0005060704701460020854A506820F4E0609E
:1009B00008435060704701460020814A506820F487
:1009C000605040EAC1005060704729B17C4A527AB9
:1009D00002437B4B5A7206E0794A527AC343DBB238
:1009E0001A40774B5A727047794908607047014640
:1009F0000020734A506820F440400843506070471C
:100A00000021744A11706E4A82F82010012802D029
:100A1000042808D103E001216E4A117004E0052189
:100A20006C4A117000E000BF00BF70476A4908605F
:100A300070476349096A0143614A11627047674917
:100A40000860704730B500210022002400235C4D6F
:100A50006D6805F00C0121B1042905D0082923D1C6
:100A600005E05F4D056022E05D4D05601FE0544DDF
:100A70006D6805F47012524D6D6805F480340225DE
:100A800005EB92421CB9574D554305600BE04C4DA8
:100A90006D6815F4003F03D0524D5543056002E0E8
:100AA0004F4D5543056002E04D4D056000BF00BF4E
:100AB000434D6D6805F0F00109094B4D6B5C05680D
:100AC000DD4045603E4D6D6805F4E061090A464D24
:100AD0006B5C4568DD408560394D6D6805F460519B
:100AE000C90A414D6B5C4568DD40C560344D6D6899
:100AF00005F44041890B3D4D6B5CC568B5FBF3F5D2
:100B0000056130BD29B12E4A526902432C4B5A610E
:100B100004E02B4A52698243294B5A61704729B13C
:100B2000274A92690243264B9A6104E0244A92695B
:100B30008243234B9A61704729B1214AD26902430B
:100B40001F4BDA6104E01E4AD26982431C4BDA6112
:100B5000704729B11A4AD2680243194BDA6004E09F
:100B6000174AD2688243164BDA60704729B1144A9B
:100B700012690243124B1A6104E0114A126982435E
:100B80000F4B1A6170471A49086070470F49C864D3
:100B900070470B49C87170470948406A40F080703F
:100BA00007494862704701460020054A92680A4298
:100BB00001D0012000E00020704701498872704791
:100BC000001002400000FFF8FFFFF6FE0000424266
:100BD000D800424220100240800442423C0442427B
:100BE00000127A0000093D001400002024000020BB
:100BF0004004424210B50446FC48844209D1012118
:100C00008803FFF7A6FF00214FF48040FFF7A1FF04
:100C100032E0F748844209D101214804FFF7A6FFDA
:100C200000214FF40030FFF7A1FF25E0F148844296
:100C300009D101218804FFF799FF00214FF480209A
:100C4000FFF794FF18E0EC48844209D10121C80461
:100C5000FFF78CFF00214FF40020FFF787FF0BE028
:100C6000E648844208D101210805FFF77FFF0021F3
:100C70004FF48010FFF77AFF10BD2DE9F04786B0E2
:100C800005460E460024A24600BFA1460027B089B3
:100C900000B100BF2F462C8A4CF6FF700440F0884C
:100CA00004432C82AC894EF6F3100440B08831899D
:100CB0000843718908430443AC81AC8A4FF6FF4076
:100CC0000440B0890443AC8201A8FFF7BBFEC748CB
:100CD000874202D1DDF810A001E0DDF80CA0A88960
:100CE00010F4004F08D00AEBCA0000EB0A1031687C
:100CF0004900B0FBF1F807E00AEBCA0000EB0A106C
:100D000031688900B0FBF1F86420B8FBF0F0040111
:100D10002009642101FB1089A88910F4004F08D034
:100D2000322000EBC900B0FBF1F000F007000443F3
:100D300008E0322000EB09106421B0FBF1F000F074
:100D40000F0004432C8106B0BDE8F0874FF4165124
:100D5000016000218180C18001810C21418100213D
:100D60008181704710B502460020108A4FF2FF03C0
:100D700018400B884C8823438C882343CC8823431A
:100D80001843108210BD0021018041808180C18004
:100D9000704721B1828942F40052828104E0828945
:100DA0004DF6FF731A4082817047F0B50346002468
:100DB000002600250020A1F510676A3F00D100BF82
:100DC0001846C1F3421401F01F06012707FA06F581
:100DD000012C01D10C3004E0022C01D1103000E0D4
:100DE00014301AB107682F43076002E00768AF4369
:100DF0000760F0BD10B51AB1838A0B43838204E00B
:100E0000838ACC43A4B22340838210BD028A4FF66A
:100E1000F0731A400282028A0A4302827047828972
:100E20004FF2FF731A40828182890A4382817047A0
:100E300021B1828942F00202828104E082894FF668
:100E4000FD731A4082817047028A4FF6DF731A40A1
:100E50000282028A0A430282704721B1028A42F466
:100E60008042028204E0028A4BF6FF731A4002823B
:100E70007047C1F308028280704701468888C0F33A
:100E800008007047818941F0010181817047028B20
:100E9000D2B20283028B42EA012202837047028BA4
:100EA00002F47F420283028B0A430283704721B11E
:100EB000828A42F02002828204E0828A4FF6DF7347
:100EC0001A408282704721B1828A42F010028282E7
:100ED00004E0828A4FF6EF731A408282704721B194
:100EE000828A42F00802828204E0828A4FF6F77317
:100EF0001A408282704721B1828942F40042828185
:100F000003E08289C2F30E028281704721B1828A96
:100F100042F40062828204E0828A4FF2FF731A4038
:100F200082827047828A4FF6FB731A408282828ADD
:100F30000A438282704721B1828A42F00202828291
:100F400004E0828A4FF6FD731A408282704702469F
:100F50000020B1F5007F00D100BF13880B4201D003
:100F6000012000E00020704701F40072B2F5007F1C
:100F700000D100BFCA430280704770B5024600240A
:100F8000002300250020A1F510666A3E00D100BFB5
:100F9000C1F3421501F01F03012606FA03F3012DE8
:100FA00002D19689334006E0022D02D1168A3340E1
:100FB00001E0968A33400C12012606FA04F41688E2
:100FC000344013B10CB1012000E0002070BD10B519
:100FD00000220023A1F510646A3C00D100BF0A1270
:100FE00001249440A3B2DC43048010BD00380140CA
:100FF0000044004000480040004C004000500040C9
:1010000010B50120FFF7BFFD0020FFF7BCFD10BDAC
:1010100024490860704724490860704723490860E4
:10102000704701460020224A10884FF67F4200EAAE
:10103000020040EA01001F4AA2F82C0C704701464A
:1010400000201B4A10884FF6807200EA020040EA36
:101050000100184AA2F82C0C70470022144A2C3ABE
:1010600002441160704701460022114A2C3A0A449A
:101070001088704710480068C0B270470F48008859
:1010800040F001000B49A1F8340C70470C4800688F
:10109000C0B270470948008840F002000549A1F835
:1010A000340C704704860D4200860D4288860D423E
:1010B0002C6C004000600040A0860D42346C004063
:1010C000A4860D4210B501210807FFF74FFD00214E
:1010D0004FF08050FFF74AFD10BD2C490862704761
:1010E0002A490861704701460020294A106820F00B
:1010F000E00008431060704726490860704710B54B
:1011000002460020224B186820F0030010431860AC
:10111000214B1B6843F004034FF0E024C4F8103D5A
:10112000012901D130BF00E020BF1B4B1B6823F019
:1011300004034FF0E024C4F8103D10BD14480068CB
:1011400040F00400124908600846006840F00200C0
:1011500008601148006840F004004FF0E021C1F839
:10116000100D00BF00BF30BF704701460020084A85
:1011700052680A4201D0012000E000207047044973
:10118000096841EA8001024A1160704700000E427E
:1011900000700040A0000E4210ED00E039B1554A49
:1011A000128842EA0002544BA3F8002809E0514A91
:1011B00012886FEA00039BB202EA03024E4BA3F8C7
:1011C000002870474D48008840F010004A49A1F8B7
:1011D00004087047494800884FF6EF7100EA0100A3
:1011E0004549A1F804087047002145480188424854
:1011F000B0F8180841EA0040704700B50246FFF712
:10120000E1FF100C3F4908803B49A1F81C28FFF77B
:10121000E1FF00BD00B50246FFF7D4FFC2F3034073
:10122000394908803449A1F80C28FFF7D3FF00BDE5
:1012300000B50246FFF7C6FF100C344908802E495E
:10124000A1F82428FFF7C6FF00BD00203049098817
:101250004FEA01714FEA11302749B1F8141841EAF9
:101260000000704700BF2548008810F0200FFAD01A
:101270007047224800884FF6F77100EA01001E49C6
:10128000A1F8040800BF1D48008810F0080FFAD02C
:10129000704701460020194A12880A4201D00120F5
:1012A00000E000207047154909886FEA000292B2F9
:1012B00001EA0201104AA2F8041870470146002012
:1012C0000E4A128802EA0102D0B20B4AB2F8002894
:1012D0000A4202D008B1012000E00020704707490F
:1012E00009886FEA000292B201EA0201024AA2F8FA
:1012F00004187047002800400020004004280040E7
:101300001C280040182800400828004020280040E1
:101310001028004001460020FF4A106800F0380005
:10132000084310607047FC49096821F00801FA4A37
:10133000116011460968014311607047F649096858
:1013400021F01001F44A116011460968014311604F
:101350007047F248F0494860F14848607047EF48EC
:10136000ED494860EE4848607047EB48006940F03E
:101370008000E94908617047E748006940F0800053
:10138000E549086170470420E349C96801F001019B
:10139000012901D101200EE0DF49C96811F0040FD5
:1013A00001D0022007E0DC49C96811F0100F01D01C
:1013B000032000E00420704700B502460423FFF735
:1013C000E2FF034603E0FFF7DEFF0346521E012B58
:1013D00001D1002AF7D102B90523184600BD30B566
:1013E000044604254FF43020FFF7E6FF0546042DA0
:1013F00017D1C948006940F00200C7490861084692
:101400004461006940F0400008614FF43020FFF76C
:10141000D3FF0546C048006941F6FD710840BE494A
:101420000861284630BD10B504244FF43020FFF782
:10143000C3FF0446042C16D1B748006940F00400ED
:10144000B54908610846006940F0400008614FF462
:101450003020FFF7B1FF0446AF48006941F6FB7149
:101460000840AD490861204610BD00B5024604237E
:10147000FFF789FF034603E0FFF785FF0346521E8F
:10148000012B01D1002AF7D102B90523184600BD6E
:1014900010B504244FF43020FFF7E7FF0446042C76
:1014A00016D19D48006940F004009B490861084638
:1014B000006940F0400008614FF43020FFF7D5FF8D
:1014C00004469548006941F6FB710840924908615D
:1014D000204610BD00209049C96911F0020F01D0CB
:1014E000012000E00020704730B5A5250424FFF757
:1014F000F1FF00B100254FF43020FFF75DFF0446F7
:10150000042C3BD18548844988608548886008461A
:10151000006940F0200008610846006940F0400082
:1015200008614FF43020FFF747FF0446042C1CD11C
:101530007948006941F6DF7108407749086108463B
:10154000006940F010000861764805804FF40050B3
:10155000FFF732FF0446052C10D06F48006941F6B2
:10156000EF7108406C49086108E0052C06D06A4814
:10157000006941F6EF71084067490861204630BDB7
:10158000F0B504460D4604260027F002FFF714FFCD
:101590000646042E22D16048006940F001005E49F1
:1015A00008612580F002FFF707FF0646042E0ED1E2
:1015B000A71C280C3880F002FFF7FEFE06465648AE
:1015C000006941F6FE7108405349086106E052483F
:1015D000006941F6FE7108404F4908613046F0BD90
:1015E00070B504460D460426F002FFF7E5FE0646F8
:1015F000042E11D14848006940F0010046490861B5
:101600002580F002FFF7D8FE06464348006941F600
:10161000FE71084040490861304670BD70B505460E
:101620000E460424E002FFF7C7FE0446042C17D13F
:101630003A48394988603A4888600846006940F06D
:10164000100008612E80E002FFF7B6FE0446052C6C
:1016500006D03148006941F6EF7108402E49086113
:10166000204670BD2DE9F04304464FF6FF7637461D
:10167000B046B1460425E443E6B2C4F30727C4F3F9
:1016800007484FEA1469E802FFF796FE0546042D65
:101690003ED1224820498860214888600846006978
:1016A00040F010000861FF2E06D01F4806804FF45E
:1016B0000050FFF781FE0546042D08D1FF2F06D00C
:1016C0001A4807804FF40050FFF776FE0546042DB8
:1016D00009D1B8F1FF0F06D01548A0F80C88E80230
:1016E000FFF76AFE0546042D09D1B9F1FF0F06D0B8
:1016F0000F48A0F80E98E802FFF75EFE0546052D9C
:1017000006D00548006941F6EF71084002490861BA
:101710002846BDE8F0830000002002402301674511
:10172000AB89EFCD00F8FF1F08F8FF1F0AF8FF1F75
:1017300000F0FF1F30B5054604244FF43020FFF7BA
:101740003BFE0446042C41D15F48604988606048F4
:1017500088600846006940F020000861084600697A
:1017600040F0400008614FF43020FFF725FE0446AA
:10177000042C22D15548006941F6DF7108405349D5
:1017800008610846006940F0100008611DB10020A2
:101790005049088002E0A5204E4908804FF43020CF
:1017A000FFF70AFE0446052C10D04848006941F6B0
:1017B000EF7108404549086108E0052C06D0434810
:1017C000006941F6DF71084040490861204630BD9C
:1017D000F0B505460E46174604243B483B49886051
:1017E0003B488860E002FFF7E7FD0446042C19D16E
:1017F0003648006940F010003449086147F0F800AD
:1018000030432843344908804FF40050FFF7D4FD9B
:101810000446052C06D02D48006941F6EF710840BA
:101820002A4908612046F0BD2848C06980087047F1
:101830002648006A704700202449096811F0200FEB
:1018400001D0012000E00020704729B11F4A126931
:1018500002431E4B1A6104E01C4A126982431B4B6F
:101860001A61704701460020012908D1174AD26940
:1018700012F0010F01D0012008E0002006E0134A19
:10188000D2680A4201D0012000E0002070470F49D1
:10189000C860704704200D49C96801F001010129A1
:1018A00001D101200EE00949C96811F0040F01D0EF
:1018B000022007E00549C96811F0100F01D003208C
:1018C00000E004207047000023016745002002402B
:1018D000AB89EFCD00F8FF1F02F8FF1F10B50446DB
:1018E000F648844209D101214805FFF73FF900215C
:1018F0004FF40010FFF73AF908E001218805FFF7DF
:1019000035F900214FF48000FFF730F910BD2DE9C3
:10191000F04385B004460D460026B1460427DFF8A3
:10192000A083A6884FF6C0710E406846FFF78AF87C
:10193000DDF80880E348B8FBF0F01FFA80F946EACA
:101940000906A68020884FF6FE71084020800026F8
:10195000DD49286888420CD828684000B8FBF0F0C0
:1019600087B2042F00DA04273E4309F101002084E6
:1019700027E0E888A0F53F41FF3906D1286800EB51
:101980004000B8FBF0F087B209E0286800EBC00126
:1019900001EB0010B8FBF0F087B247F48047380540
:1019A000000D01D147F0010747F4004006434FF412
:1019B000967009FB00F04FF47A7190FBF1F0401C37
:1019C0002084A683208840F00100208026884FF6DE
:1019D000F5310E40A8886989084306432680A88906
:1019E00029890843208105B0BDE8F08341F28831A0
:1019F0000160002181804BF6FF71C18000210181CF
:101A000041814FF480418181704721B1028842F0C9
:101A10000102028004E002884FF6FE731A40028041
:101A2000704721B1828842F40062828004E082889B
:101A30004FF2FF731A408280704721B1828842F4CE
:101A40008052828004E082884EF6FF731A408280C2
:101A5000704721B1028842F48072028004E002885B
:101A60004FF6FF631A400280704721B1028842F4AA
:101A70000072028004E002884FF6FF531A40028091
:101A8000704721B1028842F48062028004E002883B
:101A90004FF6FF331A40028070470A4600218189C1
:101AA0004FF60173194002F0FE031943818170471C
:101AB00021B1828942F00102828104E082894FF6DD
:101AC000FE731A408281704721B1028842F04002C1
:101AD000028004E002884FF6BF731A40028070470C
:101AE00010B51AB183880B43838004E08388CC430C
:101AF000A4B22340838010BD018270470146088A4A
:101B0000C0B2704712B141F0010102E04FF6FE731E
:101B10001940018270470246002313460B4418887F
:101B2000704721B1028842F40042028003E002883B
:101B3000C2F30E0202807047B1F5006F04D1028833
:101B400042F40062028004E002884FF2FF731A4000
:101B500002807047B1F5005F04D1028842F4005260
:101B6000028004E002884DF6FF731A40028070473D
:101B700021B1028842F48052028004E002884EF6CD
:101B8000FF731A4002807047B1F5006F04D10288DC
:101B900042F40062028004E002884FF2FF731A40B0
:101BA0000280704721B1028842F02002028004E0E6
:101BB00002884FF6DF731A40028070470146088B97
:101BC0000012704721B1028842F01002028004E046
:101BD00002884FF6EF731A400280704721B90288DD
:101BE00042F08002028004E002884FF67F731A40C0
:101BF00002807047B1F5804F05D0828B4BF6FF73A2
:101C00001A40828303E0828B42F4804282837047D1
:101C100070B502460024002500230020958A138B0E
:101C20001B0445EA030626F07F4404EA01068E42BF
:101C300001D1012000E0002070BD10B50146002058
:101C4000002300228B8A0A8B120443EA020424F048
:101C50007F4010BD30B503460020002400221A4604
:101C60000C0F21F07F410CB1143201E0090C183245
:101C700015680D4201D0012000E0002030BD002297
:101C800021F07F42D3438382704730B50246002063
:101C90000023948801F0E06504EA154321F07F41B8
:101CA000948A0C4202D00BB1012000E0002030BD2C
:101CB000002221F07F42D3438382704700540040CA
:101CC00000127A0040420F00A086010009488047B8
:101CD00009480047FEE7FEE7FEE7FEE7FEE7FEE70E
:101CE000FEE7FEE7FEE7FEE704480549054A064B26
:101CF0007047000001030008ED00000868010020A3
:101D00006807002068030020680300208CB00020D2
:101D10000B9007900690059004900390029001F0BC
:101D2000D2FE02F073FDC82001F0ADFE02F034F8DF
:101D300002F08AFC02F0BFF902F0F6FB02F024FB8D
:101D400002F050FB00200890012002F080FD0120ED
:101D500002F086FD0020099022E0FF49099801EB7E
:101D60004000019001F0F7FEC0B204900498C11742
:101D7000019000EB11600012F84A09995054049840
:101D8000C117019000EB116001120198A0EB012036
:101D9000C1B2F34A099811540998401C80B20990C5
:101DA00009980228D9DBED480078172813DD0020B8
:101DB00009900BE01821E94A099811540021E84ADA
:101DC000099811540998401C80B20990099802287A
:101DD000F0DB01F0C4FEFEE30898012813D10020D7
:101DE0000890E049087008460378DF480278DF4829
:101DF000CDE900230378DE480278DE480178DE482A
:101E0000008802F019F80B98032802DB0B980828C9
:101E100004DD02F0A4F80AA802F098FC0B98F0BBCD
:101E2000D5480088642190FBF1F201FB12000A21E1
:101E300090FBF1F0C0B201460190002002F03DFCA1
:101E4000CD480088642190FBF1F201FB12000A21C9
:101E500090FBF1F201FB1200C0B20146019001209B
:101E600002F02BFC1521022002F027FCC14800786B
:101E70000A2190FBF1F0C0B201460190032002F06C
:101E80001CFCBC4800780A2190FBF1F201FB120017
:101E9000C0B201460190042002F00FFC00E05BE0BC
:101EA0001521052002F009FCB14800780A2190FBB9
:101EB000F1F0C0B201460190062002F0FEFBAC48F2
:101EC00000780A2190FBF1F201FB1200C0B201463A
:101ED0000190072002F0F1FB0121A848FEF7FDFB6D
:101EE00050B900200B9002F063FA00BF0121A34813
:101EF000FEF7F3FB0028F9D00221A048FEF7EDFB26
:101F000050B901200B9002F053FA00BF02219B4808
:101F1000FEF7E3FB0028F9D004219848FEF7DDFB2B
:101F200050B902200B9002F043FA00BF04219348FD
:101F3000FEF7D3FB0028F9D008219048FEF7CDFB2F
:101F400050B903200B9002F033FA00BF08218B48F0
:101F5000FEF7C3FB0028F9D00B9801287ED114218D
:101F6000002002F0AAFB1421012002F0A6FB14219C
:101F7000022002F0A2FB9DF8280020B115210320C9
:101F800002F09BFB03E01421032002F096FB9DF876
:101F90002900642190FBF1F201FB12000A2190FB61
:101FA000F1F0C0B201460190042002F086FB9DF8DA
:101FB0002900642190FBF1F201FB12000A2190FB41
:101FC000F1F201FB12000A30C0B201460190052077
:101FD00002F073FB9DF82A00642190FBF1F201FBF3
:101FE00012000A2190FBF1F0C0B2014601900620D8
:101FF00002F063FB1621072002F05FFB01215F481E
:10200000FEF76BFB50B900200B9002F0D1F900BF36
:1020100001215A48FEF761FB0028F9D002215748F8
:10202000FEF75BFB50B901200B9002F0C1F900BF35
:1020300002215248FEF751FB0028F9D004214F48F5
:10204000FEF74BFB60B902200B9002F0B1F900BF24
:1020500004214A48FEF741FB002800E010E0F7D0D9
:1020600008214648FEF739FB50B903200B9002F0D7
:102070009FF900BF08214148FEF72FFB0028F9D047
:102080000B9802287CD101F06AFF1421002002F095
:1020900014FB1421012002F010FB344800780A21BF
:1020A00090FBF1F0C0B201460190022002F005FB66
:1020B0002E4800780A2190FBF1F201FB12000A3051
:1020C000C0B201460190032002F0F7FA26480078DA
:1020D0000A2190FBF1F0C0B201460190042002F009
:1020E000ECFA214800780A2190FBF1F201FB120082
:1020F0000A30C0B201460190052002F0DEFA19480C
:1021000000780A2190FBF1F0C0B201460190062050
:1021100002F0D3FA134800780A2190FBF1F201FB98
:102120001200C0B201460190072002F0C6FA012158
:102130001248FEF7D2FA50B900200B9002F038F99D
:1021400000BF01210D48FEF7C8FA0028F9D002218E
:102150000A48FEF7C2FA14E000F001082800002047
:102160002A0000203C0000203B0000203A00002014
:10217000390000203800002036000020000801400F
:102180002BE050B901200B9002F012F900BF0221A0
:10219000FF48FEF7A2FA0028F9D00421FC48FEF718
:1021A0009CFA50B902200B9002F002F900BF042102
:1021B000F748FEF792FA0028F9D00821F448FEF714
:1021C0008CFA50B903200B9002F0F2F800BF0821FE
:1021D000EF48FEF782FA0028F9D00B98032818DAA6
:1021E0000298401C80B202900298B0F5FA6F01D1BB
:1021F00000200B900298B0F57A6F01D101200B906E
:102200000298A0F5B851703903D102200B9000203C
:1022100002900B98032825D11721002002F04DFAD7
:102220001821012002F049FA1921022002F045FA92
:102230001421032002F041FA1421042002F03DFA97
:102240001421052002F039FA1421062002F035FA93
:102250001421072002F031FA02F0DFF80020059087
:1022600064200B900B98042875D10998401C80B20B
:1022700009900998B0F5FA7F01DD002009900998CE
:10228000FA2822DDC3480088642190FBF1F201FBAB
:1022900012000A2190FBF1F0C0B20146019000202B
:1022A00002F00BFABB480088642190FBF1F201FBBD
:1022B00012000A2190FBF1F201FB1200C0B20146AC
:1022C0000190012002F0F9F907E01421002002F04A
:1022D000F4F91421012002F0F0F91521022002F096
:1022E000ECF9AD4800780A2190FBF1F0C0B201464C
:1022F0000190032002F0E1F9A74800780A2190FB41
:10230000F1F201FB1200C0B201460190042002F07C
:10231000D4F91521052002F0D0F9A04800780A214F
:1023200090FBF1F0C0B201460190062002F0C5F921
:102330009A4800780A2190FBF1F201FB1200C0B22A
:1023400001460190072002F0B8F901219048FEF7FC
:10235000C4F9F0BB07E0FDE00698401CC0B206904F
:102360000A2001F090FB01218948FEF7B6F910B967
:1023700006986428F0DB069864283FDB02F018F822
:1023800035E084480088401C82490880084600885F
:1023900040F6B831884203DD40F2E5707D4908809F
:1023A0007C480088642190FBF1F201FB12000A21B5
:1023B00090FBF1F0C0B201460190002002F07DF9DF
:1023C00074480088642190FBF1F201FB12000A219D
:1023D00000E02BE090FBF1F201FB1200C0B20146DD
:1023E0000190012002F069F9642001F04CFB012109
:1023F0006748FEF772F90028C3D014E0079890B937
:10240000FB20099063480088401C62490880084608
:10241000008840F6B831884203DD40F2E5705D493E
:10242000088001F0C5FF002007900690022158485F
:10243000FEF753F9E8BB06E00698401CC0B20690D0
:102440000A2001F020FB02215148FEF746F910B99D
:1024500006986428F0DB069864283FDB01F0A8FFAB
:1024600035E04C480088401E4A49088008460088EC
:1024700040F2E571884203DA40F6B83045490880F9
:1024800044480088642190FBF1F201FB12000A210C
:1024900090FBF1F0C0B201460190002002F00DF96E
:1024A0003C480088642190FBF1F201FB12000A21F4
:1024B00000E02BE090FBF1F201FB1200C0B20146FC
:1024C0000190012002F0F9F8642001F0DCFA022109
:1024D0002F48FEF702F90028C3D014E0079890B9FE
:1024E000FB2009902B480088401E2A490880084696
:1024F000008840F2E571884203DA40F6B830254999
:10250000088001F055FF0020079006900421204824
:10251000FEF7E3F860B905200B900120089001F068
:1025200047FF00BF04211A48FEF7D7F80028F9D06A
:1025300008211748FEF7D1F860B900200B90012060
:10254000089001F035FF00BF08211148FEF7C5F8DB
:102550000028F9D00B9805287DD10998401C80B23D
:1025600009900998B0F5FA7F01DD0020099009482B
:102570000088642190FBF1F201FB12000A2190FB1C
:10258000F1F0C0B201460190002002F096F807E099
:1025900000080140360000203800002039000020EB
:1025A000FB480088642190FBF1F201FB12000A2134
:1025B00090FBF1F201FB1200C0B201460190012034
:1025C00002F07BF81521022002F077F80998FA282A
:1025D0000ADD142100E0F1E3032002F06EF814217B
:1025E000042002F06AF817E0EA4800780A2190FB1C
:1025F000F1F0C0B201460190032002F05EF8E54818
:1026000000780A2190FBF1F201FB1200C0B20146F2
:102610000190042002F051F81521052002F04DF838
:10262000DD4800780A2190FBF1F0C0B2014601902C
:10263000062002F042F8D84800780A2190FBF1F217
:1026400001FB1200C0B201460190072002F035F8EC
:102650000121D24800E0DDE0FEF73FF8F0BB06E0E4
:102660000698401CC0B206900A2001F00CFA012125
:10267000CA48FEF732F810B906986428F0DB0698CD
:10268000642831DB01F094FE25E0C2480078401C4C
:10269000C0490870084600780C2801DD0120087048
:1026A000BC4800780A2190FBF1F0C0B201460190CD
:1026B000032002F002F8B74800780A2190FBF1F2FB
:1026C00001FB1200C0B201460190042001F0F5FFA9
:1026D000642001F0D8F90121B04800E018E0FDF7CE
:1026E000FCFF0028D1D010E0079870B9FB200990BA
:1026F000A8480078401CA7490870084600780C28B4
:1027000001DD0120087001F053FE002007900690C3
:102710000221A248FDF7E1FFF0BB06E00698401C4D
:10272000C0B206900A2001F0AEF902219B48FDF7E5
:10273000D4FF10B906986428F0DB0698642831DBD2
:1027400001F036FE25E093480078401E914908705C
:1027500008460078012801DA0C2008708D480078BE
:102760000A2190FBF1F0C0B201460190032001F074
:10277000A4FF884800780A2190FBF1F201FB1200C7
:10278000C0B201460190042001F097FF642001F0DF
:102790007AF90221814800E018E0FDF79EFF002849
:1027A000D1D010E0079870B9FB20099079480078E3
:1027B000401E7849087008460078012801DA0C208C
:1027C000087001F0F5FD0020079006900421734881
:1027D000FDF783FF60B906200B900120089001F0FF
:1027E000E7FD00BF04216D48FDF777FF0028F9D011
:1027F00008216A48FDF771FF60B900200B900120A5
:10280000089001F0D5FD00BF08216448FDF765FF81
:102810000028F9D00B98062875D10998401C80B281
:1028200009900998B0F5FA7F01DD00200990584819
:102830000088642190FBF1F201FB12000A2190FB59
:10284000F1F0C0B201460190002001F036FF50487F
:102850000088642190FBF1F201FB12000A2190FB39
:10286000F1F201FB1200C0B201460190012001F01B
:1028700024FF1521022001F020FF464800780A219C
:1028800090FBF1F0C0B201460190032001F015FF6A
:10289000404800780A2190FBF1F201FB1200C0B21F
:1028A00001460190042001F008FF1521052001F0E8
:1028B00004FF0998FA2818DD374800780A2190FBB0
:1028C000F1F0C0B201460190062001F0F6FE324858
:1028D00000780A2190FBF1F201FB1200C0B2014620
:1028E0000190072001F0E9FE07E01421062001F025
:1028F000E4FE1421072001F0E0FE01212748FDF746
:10290000ECFEF0BB07E0DFE00698401CC0B206908A
:102910000A2001F0B8F801212048FDF7DEFE10B9C9
:1029200006986428F0DB0698642839DB01F040FD46
:1029300025E019480078401C1749087008460078BF
:102940001F2801DD01200870134800780A2190FB40
:10295000F1F0C0B201460190062001F0AEFE0E4833
:1029600000780A2190FBF1F201FB1200C0B201468F
:102970000190072001F0A1FE642001F084F80121FC
:1029800000E021E00548FDF7A8FE0028D1D018E0BE
:1029900036000020380000203900002000080140E7
:1029A000079870B9FB200990FF480078401CFE4949
:1029B0000870084600781F2801DD0120087001F02A
:1029C000F7FC0020079006900221F848FDF785FEED
:1029D000F0BB06E00698401CC0B206900A2001F049
:1029E00052F80221F148FDF778FE10B906986428E4
:1029F000F0DB0698642831DB01F0DAFC25E0EA48D8
:102A00000078401EE849087008460078012801DA7D
:102A10001F200870E44800780A2190FBF1F0C0B252
:102A200001460190062001F048FEDF4800780A21A7
:102A300090FBF1F201FB1200C0B2014601900720A9
:102A400001F03BFE642001F01EF80221D74800E0AF
:102A500016E0FDF742FE0028D1D00EE0079860B9DD
:102A6000D1480078401ED0490870084600780128F7
:102A700001DA1F20087001F09BFC002007900690EF
:102A80000421CA48FDF729FE60B907200B900120F8
:102A9000089001F08DFC00BF0421C448FDF71DFE25
:102AA0000028F9D00821C148FDF717FE60B90020C1
:102AB0000B900120089001F07BFC00BF0821BB486F
:102AC000FDF70BFE0028F9D00B9807287ED1099856
:102AD000401C80B209901421002001F0EEFD142169
:102AE000012001F0EAFD0998FA2819DDB0480078C4
:102AF0000A2190FBF1F0C0B201460190022001F0E2
:102B0000DCFDAB4800780A2190FBF1F201FB1200DA
:102B10000A30C0B201460190032001F0CEFD07E06B
:102B20001421022001F0C9FD1421032001F0C5FD8C
:102B3000A04800780A2190FBF1F0C0B20146019054
:102B4000042001F0BAFD9B4800780A2190FBF1F2C5
:102B500001FB12000A30C0B201460190052001F0CD
:102B6000ACFD954800780A2190FBF1F0C0B2014617
:102B70000190062001F0A1FD8F4800780A2190FB0A
:102B8000F1F201FB1200C0B201460190072001F0F2
:102B900094FD0998B0F5FA7F01DD0020099001212C
:102BA0008248FDF79AFDE8BB06E00698401CC0B2DB
:102BB00006900A2000F067FF01217C48FDF78DFD9B
:102BC00010B906986428F0DB069800E0C5E0642898
:102BD00032DB01F0EDFB28E075480078401C7449B9
:102BE000087008460078172801DD0020087070483A
:102BF00000780A2190FBF1F0C0B20146019002205A
:102C000001F05BFD6A4800780A2190FBF1F201FBBC
:102C100012000A30C0B201460190032001F04DFDC0
:102C2000642000E01AE000F02EFF01215F48FDF76C
:102C300054FD0028D0D00EE0079860B95C480078B9
:102C4000401C5B49087008460078172801DD002009
:102C5000087001F0ADFB0020079006900221534858
:102C6000FDF73BFDF0BB06E00698401CC0B20690A5
:102C70000A2000F008FF02214C48FDF72EFD10B994
:102C800006986428F0DB0698642831DB01F090FB9D
:102C900025E04748007810B9182045490870444895
:102CA0000078401E424908703F4800780A2190FB96
:102CB000F1F0C0B201460190062001F0FEFC3A4856
:102CC00000780A2190FBF1F201FB1200C0B201462C
:102CD0000190072001F0F1FC642000F0D4FE0221F5
:102CE000324800E016E0FDF7F8FC0028D1D00EE0F5
:102CF000079860B92E48007810B918202C49087040
:102D00002B480078401E2A49087001F051FB002032
:102D10000790069004212548FDF7DFFC60B90820E4
:102D20000B900120089001F043FB00BF04211F48D5
:102D3000FDF7D3FC0028F9D008211C48FDF7CDFC95
:102D400058B901200B90089001F032FB00BF082118
:102D50001648FDF7C2FC0028F9D00B98082879D155
:102D60000998401C80B209901421002001F0A5FCB4
:102D70001421012001F0A1FC0D4800780A2190FBEC
:102D8000F1F0C0B201460190022001F096FC084823
:102D900000780A2190FBF1F201FB12000A30C0B268
:102DA0000146019003200AE039000020000801409C
:102DB0003A0000203B0000203C000020FEE301F030
:102DC0007CFC0998FA2808DD1421042001F075FC28
:102DD0001421052001F071FC18E0FF4800780A2159
:102DE00090FBF1F0C0B201460190042001F065FCB7
:102DF000F94800780A2190FBF1F201FB12000A3039
:102E0000C0B201460190052001F057FCF34800785C
:102E10000A2190FBF1F0C0B201460190062001F0BA
:102E20004CFCEE4800780A2190FBF1F201FB120005
:102E3000C0B201460190072001F03FFC0998B0F5AF
:102E4000FA7F01DD002009900121E548FDF745FCEE
:102E5000F0BB07E0D9E00698401CC0B206900A20FB
:102E600000F011FE0121DE48FDF737FC10B906988D
:102E70006428F0DB0698642832DB01F099FA26E03A
:102E8000D5480078401CD4490870084600783B2893
:102E900001DD00200870D04800780A2190FBF1F095
:102EA000C0B201460190042001F007FCCA48007836
:102EB0000A2190FBF1F201FB12000A30C0B2014678
:102EC0000190052001F0F9FB642000F0DCFD00E03A
:102ED00018E00121C248FDF700FC0028D0D00EE028
:102EE000079860B9BC480078401CBB490870084688
:102EF00000783B2801DD0020087001F059FA00201D
:102F0000079006900221B648FDF7E7FBF0BB06E00C
:102F10000698401CC0B206900A2000F0B4FD0221C1
:102F2000AF48FDF7DAFB10B906986428F0DB069885
:102F3000642833DB01F03CFA27E0A7480078012839
:102F400002DA3C20A4490870A3480078401EA24938
:102F50000870084600780A2190FBF1F0C0B20146E3
:102F60000190042001F0A9FB9B4800780A2190FB06
:102F7000F1F201FB12000A30C0B2014601900520B7
:102F800001F09BFB642000F07EFD00E019E00221CF
:102F90009348FDF7A2FB0028CFD00FE0079868B94F
:102FA0008D480078012802DA3C208B4908708A4855
:102FB0000078401E8849087001F0FAF90020079057
:102FC000069004218648FDF788FB60B904200B9029
:102FD0000120089001F0ECF900BF04218048FDF7C2
:102FE0007CFB0028F9D008217D48FDF776FB60B90D
:102FF00000200B900120089001F0DAF900BF0821B1
:103000007748FDF76AFB0028F9D00B98642879D13E
:10301000059858B91721002001F04FFB1821012015
:1030200001F04BFB1921022001F047FB0598012814
:103030000EDB059802280BDC1A21002001F03DFB75
:103040001B21012001F039FB0220059901F035FB1D
:103050000598032812DB059804280FDC19210020AD
:1030600001F02BFB1621012001F027FB0598801EA3
:10307000C0B201460190022001F01FFB0121584817
:10308000FDF72BFBC0BB06E00698401CC0B20690C3
:103090000A2000F0F8FC01215148FDF71EFB10B991
:1030A00006986428F0DB0698642815DB01F080F9A7
:1030B0000BE00598401CC0B205900598042801DD7E
:1030C00000200590642000F0DEFC01214448FDF75B
:1030D00004FB0028EDD00CE0079850B90598401C7F
:1030E000C0B205900598042801DD0020059001F08C
:1030F0005FF900200790069002213948FDF7EDFAAC
:10310000B8BB07E057E00698401CC0B206900A2002
:1031100000F0B9FC02213248FDF7DFFA10B9069839
:103120006428F0DB0698642814DB01F041F90AE01A
:10313000059808B9052005900598401EC0B2059075
:10314000642000F0A0FC02212548FDF7C6FA002803
:10315000EED00BE0079848B9059808B9052005900E
:103160000598401EC0B2059001F022F9002007909A
:10317000069004211A48FDF7B0FA60B90598653049
:10318000C0B20B9001F014F900BF04211448FDF700
:10319000A4FA0028F9D008211148FDF79EFA50B989
:1031A00000200B9001F004F900BF08210C48FDF746
:1031B00094FA0028F9D00B98652801D104200B90CF
:1031C0000B98662804DB0B98672801DC96200B908F
:1031D0000B9868280BDB05E03B0000203C0000203A
:1031E000000801400B98692801DCD2200B900B9855
:1031F000962872D10598401EFF49085C3B2804DDE3
:1032000000210598401EFC4A11540998401C80B2C8
:1032100009900598401EF949085C182830D11A21F8
:10322000002001F04AFA1B21012001F046FA022099
:10323000059901F042FA1421032001F03EFA14210D
:10324000042001F03AFA0998FA280CDD1C21052027
:1032500001F033FA1D21062001F02FFA1D2107206D
:1032600001F02BFA5FE01421052001F026FA142169
:10327000062001F022FA1421072001F01EFA52E084
:103280001A21002001F019FA1B21012001F015FA82
:103290000220059901F011FA0998FA281EDD059817
:1032A000401ED649085C0A2190FBF1F0C0B20146ED
:1032B0000190042001F001FA0598401ECF49085CF6
:1032C0000A2190FBF1F201FB12000A30C0B2014664
:1032D0000190052001F0F1F908E03AE11421042001
:1032E00001F0EBF91421052001F0E7F90598401EE3
:1032F000C149085C0A2190FBF1F0C0B2014601907F
:10330000062001F0DAF90598401EBB49085C0A2145
:1033100090FBF1F201FB12000A30C0B201460190AD
:10332000072001F0CAF90998B0F5FA7F01DD002005
:1033300009900121B248FDF7D0F9F0BB06E00698EC
:10334000401CC0B206900A2000F09DFB0121AC4851
:10335000FDF7C3F910B906986428F0DB06986428D5
:103360003FDB01F025F835E00598401EA349085CD5
:10337000401CC1B20598401EA04A11540598401E39
:103380001146085C182803DD00210598401E1154E1
:103390000598401E9949085C0A2190FBF1F0C0B2E3
:1033A00001460190042001F088F90598401E9349D8
:1033B000085C0A2190FBF1F200E02DE001FB120015
:1033C0000A30C0B201460190052001F076F9642070
:1033D00000F059FB01218A48FDF77FF90028C3D08E
:1033E00017E00798A8B90598401E8449085C401C5E
:1033F000C1B20598401E814A11540598401E1146DD
:10340000085C182803DD00210598401E115400F0C7
:10341000CFFF00200790069002217948FDF75DF963
:10342000F0BB06E00698401CC0B206900A2000F0EF
:103430002AFB02217248FDF750F910B9069864285A
:10344000F0DB069864283FDB00F0B2FF35E005981A
:10345000401E6A49085C20B919210598401E674A38
:1034600011540598401E6549085C401EC1B205987C
:10347000401E624A11540598401E1146085C0A21FC
:1034800090FBF1F0C0B201460190042001F015F963
:103490000598401E5949085C0A2190FBF1F200E0B2
:1034A0002DE001FB12000A30C0B201460190052058
:1034B00001F003F9642000F0E6FA02215048FDF71C
:1034C0000CF90028C3D017E00798A8B90598401E4A
:1034D0004A49085C20B919210598401E474A1154F1
:1034E0000598401E4549085C401EC1B20598401E23
:1034F000424A115400F05CFF00200790069004211E
:103500003F48FDF7EAF890B90598401E3B49085C32
:10351000182801D097200B9000F04AFF00F01FFB05
:1035200000BF04213648FDF7D8F80028F9D008215B
:103530003348FDF7D2F860B900200B9000F038FF57
:1035400000F00DFB00BF08212D48FDF7C6F800284C
:10355000F9D00B9897287ED10998401C80B2099029
:103560001A21002001F0A9F81B21012001F0A5F883
:103570000220059901F0A1F80598401E1F49085C3A
:103580000A2190FBF1F0C0B201460190042001F045
:1035900094F80598401E1949085C0A2190FBF1F245
:1035A00001FB12000A30C0B201460190052001F073
:1035B00084F80998FA2825DD059800E0ECE1401E22
:1035C0000D49085C0A2190FBF1F0C0B20146019060
:1035D000062001F072F80598401E0749085C0A2190
:1035E00090FBF1F201FB1200C0B2014601900720EE
:1035F00001F063F80EE000002A00002028000020FF
:10360000000801401421062001F057F8142107207A
:1036100001F053F80998B0F5FA7F01DD0020099018
:103620000121FF48FDF759F8E8BB06E00698401C69
:10363000C0B206900A2000F026FA0121F848FDF7F2
:103640004CF810B906986428F0DB069864283FDB34
:1036500000F0AEFE35E0ECE00598401EF149085C54
:10366000401CC1B20598401EEE4A11540598401EF8
:103670001146085C3B2803DD00210598401E1154CB
:103680000598401EE749085C0A2190FBF1F0C0B2A2
:1036900001460190062001F010F80598401EE1490E
:1036A000085C0A2100E02EE090FBF1F201FB120021
:1036B000C0B201460190072000F0FFFF642000F037
:1036C000E2F90121D648FDF708F80028C4D017E038
:1036D0000798A8B90598401ED249085C401CC1B2A1
:1036E0000598401ECF4A11540598401E1146085CAB
:1036F0003B2803DD00210598401E115400F058FEC0
:103700000020079006900221C548FCF7E6FFF0BBB9
:1037100006E00698401CC0B206900A2000F0B3F9FB
:103720000221BF48FCF7D9FF10B906986428F0DBE6
:10373000069864283EDB00F03BFE34E00598401E0E
:10374000B849085C20B93C210598401EB54A11547F
:103750000598401EB349085C401EC1B20598401E42
:10376000B04A11540598401E1146085C0A2190FB8E
:10377000F1F0C0B201460190062000F09EFF0598CE
:10378000401EA849085C0A2190FBF1F200E02CE001
:1037900001FB1200C0B201460190072000F08DFF2E
:1037A000642000F070F902219D48FCF796FF002884
:1037B000C4D017E00798A8B90598401E9949085C3D
:1037C00020B93C210598401E964A11540598401E88
:1037D0009449085C401EC1B20598401E914A11549C
:1037E00000F0E6FD00200790069004218C48FCF7CD
:1037F00074FF60B996200B9000F0DAFD00F0AFF98D
:1038000000BF04218648FCF768FF0028F9D0082192
:103810008348FCF762FF60B900200B9000F0C8FD00
:1038200000F09DF900BF08217D48FCF756FF0028F5
:10383000F9D00B9803281FDA0020099019E07A4983
:103840000998085C7949097888420ED17549099828
:10385000085C77490978884207D17648007820B912
:10386000C8200B900998C0B206900998401C80B2FD
:10387000099009980228E2DB0B98C8280AD103981E
:10388000401C80B203900398B0F5FA7F02D100206B
:1038900003900B900B98C8287ED100F089FD099801
:1038A000401C80B209900998022848DD1A210020A6
:1038B00000F003FF1B21012000F0FFFE0698401CD2
:1038C000C1B2022000F0F9FE1421032000F0F5FE41
:1038D00055490698085C0A2190FBF1F0C0B20146F8
:1038E0000190042000F0E9FE4F490698085C0A2187
:1038F00090FBF1F201FB12000A30C0B201460190C8
:10390000052000F0DAFE47490698085C0A2190FB82
:10391000F1F0C0B201460190062000F0CEFE414910
:103920000698085C0A2190FBF1F201FB12000A30B4
:10393000C0B201460190072000F0BFFE1FE0142135
:10394000002000F0BAFE1421012000F0B6FE142180
:10395000022000F0B2FE1421032000F0AEFE14217C
:10396000042000F0AAFE1421052000F0A6FE142178
:10397000062000F0A2FE1421072000F09EFE099808
:10398000042801DD0020099001212548FCF7A5FE4F
:1039900060B900200B9000E050E000F009FD00BF8E
:1039A00001211F48FCF799FE0028F9D002211C488C
:1039B000FCF793FE50B900200B9000F0F9FC00BF1B
:1039C00002211748FCF789FE0028F9D00421144889
:1039D000FCF783FE50B900200B9000F0E9FC00BF1B
:1039E00004210F48FCF779FE0028F9D008210C4883
:1039F000FCF773FE50B900200B9000F0D9FC00BF1B
:103A000008210748FCF769FE0028F9D0069810B98C
:103A1000012000F01CFF069801280FD100200BE0C8
:103A2000000801402A000020280000203A00002061
:103A30003B0000203C00002000F009FFFEF7CCB95D
:103A4000704700BFFEE700BFFEE700BFFEE700BF14
:103A5000FEE7704770477047704700EBC001C90030
:103A60004FF0E0225161002191610521116100BFF9
:103A70004FF0E021096911F4803FF9D004214FF0A3
:103A8000E0221161704700B5034603E04FF47A70FD
:103A9000FFF7E3FF1800A3F101018BB2F6D100BDDF
:103AA00010B5044603E04FF47A70FFF7ECFF2000F6
:103AB000A4F101018CB2F6D110BD10B54FF4A06095
:103AC000FCF79EFC10BD10B5FCF7C2FE4FF4803031
:103AD000FCF7DEFEFCF71BFF0446012C24D14FF45B
:103AE000E0110004FCF738FF0020FCF752FFA002B1
:103AF000FCF758FF0020FCF75EFF0220FDF70AFCF0
:103B00001020FDF71BFC0120FCF732FF00BF39201D
:103B1000FCF7E1FE0028FAD00220FCF72CFF00BFE2
:103B2000FCF732FF0828FBD110BD000070B5044639
:103B30000D46FDF70EFC3520FDF7A9FE2046FDF7EA
:103B40004EFC29461748FDF74BFD3520FDF79FFE3B
:103B5000FDF70BFC70BD014608887047704770B5D3
:103B6000FDF7F7FB3520FDF792FE0E48FDF737FC19
:103B7000002411E00C48015D0C48005D01EB0020C1
:103B800085B2084901EB44002946FDF729FD35209F
:103B9000FDF77DFE601CC4B2022CEBDBFDF7E5FBFC
:103BA00070BD000000F001082A000020280000205D
:103BB000014600BF704700BF5E4A128812F0400FF6
:103BC000FAD0C2B25C4B1A8070470FB410B5B4B0D3
:103BD000002437A80090C92101A8009B369A00F064
:103BE0004FFE0EE02046621CD4B201AA115C51487F
:103BF000FDF73FF900BF40214E48FDF7A8F9002826
:103C0000F9D0C82C04DA01A800F058FFA042E9D886
:103C100034B010BC5DF814FB10B586B00446012129
:103C200044F20400FCF77BFF4FF40070ADF8140081
:103C300003208DF8160018208DF8170005A93F48BD
:103C4000FCF7BAFC4FF48060ADF8140004208DF846
:103C5000170005A93948FCF7AFFC25208DF80000B6
:103C600003208DF801008DF8020001208DF803007B
:103C70006846FCF7CAFB01940020ADF80800ADF8D7
:103C80000A00ADF80C00ADF810000C20ADF80E00E5
:103C900001A92848FCF7F1FF012240F225512548EF
:103CA000FDF783F801212348FDF773F806B010BD36
:103CB00010B540F225511F48FDF75FF930B31D489C
:103CC000FDF7DBF8C4B221461DA000F0F3FD1D484E
:103CD000008810F4004F2BD11A48008810F4804F50
:103CE0000CD00A2C03D000201649088020E015488B
:103CF000008840F400401349088019E00D2C06D1DB
:103D00001048008840F480400E49088010E00D48BB
:103D10000088C0F30D000C490C540A480088401C70
:103D20000849088008460088C72801DD002008806F
:103D300010BD000000380140043801400008014077
:103D4000256300002C0000204000002010B5012158
:103D50004FF0C050FCF7F0FE0120FDF7BEF9FDF773
:103D60004FF90120FCF74CFE00BF4120FCF7B3FDEA
:103D70000028FAD04FF48070FCF75BFE0120FCF7BE
:103D80005EFEFDF776FAFDF76DFA47F6FF70FDF778
:103D900041FAFDF767FA10BD10B50420FDF763F98D
:103DA000A0F52541A53907D0FFF7D0FF4AF2A5516C
:103DB0000420FDF752F90DE07B20FCF78CFD10B9D3
:103DC0007A20FCF788FDFCF7E7FE0120FCF737FEC0
:103DD000FDF74FFA10BD10B50120FDF76FFA012075
:103DE000FDF77DFAFDF73EFA10BD10B50220FDF794
:103DF00065FA0220FDF773FAFDF734FA10BD0146AB
:103E0000CA1701EB92729210B1EB820212D16420B8
:103E100091FBF0F200FB121050B94FF4C87091FB07
:103E2000F0F200FB121008B9012070470020FCE7F7
:103E30000120FAE70020F8E72DE9F05F06460F467B
:103E400090469946DDE90AAB0024B6F5FA6F03DB2C
:103E500040F63300864202DD0120BDE8F09F40F2CB
:103E6000B2750AE02846FFF7CAFF10B1794804444A
:103E700001E079480444681C85B2B542F2DB781E43
:103E8000C7B2002510E07548405D40F2A3214843C9
:103E900004EBC0143046FFF7B2FF18B1012D01D179
:103EA0006F480444681C85B2BD42ECDBA8F10100F8
:103EB00040F2A321484304EBC014C9EB4910C0EB06
:103EC000092004EB0014CAEB0A1004EB80045C44E4
:103ED000FFF73CFF4AF2A5510420FDF7BEF820464B
:103EE000FDF78BF9FDF7BEF90020B6E7F0B5034604
:103EF0000C461546642093FBF0F0C6B2642093FB99
:103F0000F0F700FB1730C1B2132E02DD01F164009F
:103F1000C1B20846CF1701EB977701EBA702072044
:103F200092FBF0F700FB172082B25719601EDFF8F2
:103F300034C11CF80000384482B2CF1701EB9777E8
:103F4000BF10B1EB870703D1032C01DA501E82B2F8
:103F5000072092FBF0F700FB1720C0B2F0BD70B550
:103F6000002600240025FDF73FF906463C48B6FB35
:103F7000F0F43D480088A0423DD03B490C8040F21F
:103F8000B27510E02846FFF73AFF40B1B4F5B77FAD
:103F900002D3A4F5B77404E0681C85B206E0A4F26D
:103FA0006D14681C85B2B4F5B67FEBD800BF2F48FE
:103FB0000580002516E02D480088FFF720FF30B16E
:103FC000012D04D11D2C01D31D3C09E00CE0234838
:103FD000405DA04203D82148405D241A00E003E080
:103FE000681C85B21C2CE6D200BF681C20490870F2
:103FF000601C204908701A48B6FBF0F100FB116400
:104000004FF46160B4FBF0F01B4908704FF461603D
:10401000B4FBF0F100FB11403C21B0FBF1F017497B
:1040200008704FF46160B4FBF0F100FB11403C21DB
:10403000B0FBF1F201FB1200114908700D48027843
:104040000B48017809480088FFF750FF0D490870B8
:10405000002070BD0085E2018033E101B65F0008F9
:1040600080510100AA5F00083400002036000020C3
:1040700038000020390000203A0000203B000020DA
:104080003C0000203D00002008B501211C20FCF769
:1040900046FD01214805FCF74FFDC020ADF80000AA
:1040A0001C208DF8030003208DF802006946B148FA
:1040B000FCF782FA08BD1FB5FFF7E6FF0020ADF858
:1040C00004004BF6FF70ADF80600C020ADF8080004
:1040D0004FF48060ADF80A000001ADF80C00A6486E
:1040E00000906946A548FDF712FC0121A348FDF7A1
:1040F0008CFC1FBD2DE9F04105460F4614461E46B7
:1041000001219E48FDF7A5FC00BF9D499B48FDF796
:104110007FFD0028F9D0002229469848FDF7F2FCDF
:1041200000BF98499548FDF773FD0028F9D039463E
:104130009248FDF7E1FC00BF9249891C8F48FDF7CA
:1041400067FD0028F8D00CE021788C48FDF7D4FCFE
:10415000641C00BF8B49891C8848FDF759FD002865
:10416000F8D03000A6F101018EB2EDD101218348D3
:10417000FDF77BFCBDE8F08170B504460E461546A0
:1041800001217E48FDF765FC00BF7D497B48FDF7B6
:104190003FFD0028F9D0002221467848FDF7B2FC07
:1041A00000BF78497548FDF733FD0028F9D0314646
:1041B0007248FDF7A1FC00BF7249891C6F48FDF7EA
:1041C00027FD0028F8D029466C48FDF795FC00BF74
:1041D0006C49891C6948FDF71BFD0028F8D00121B6
:1041E0006648FDF742FC70BD2DE9F04106460F46DA
:1041F00015461C4600BF4FF400316048FDF72AFD0C
:104200000028F8D101215D48FDF723FC00BF5C497F
:104210005A48FDF7FDFC0028F9D0002231465748E6
:10422000FDF770FC00BF57495448FDF7F1FC00282A
:10423000F9D001215148FDF7E8FB39464F48FDF719
:104240005BFC00BF4F49891C4C48FDF7E1FC00288E
:10425000F8D001214948FDF7FCFB00BF4849474819
:10426000FDF7D6FC0028F9D0012231464348FDF77E
:1042700049FC00BF4249491C4048FDF7C9FC0028E1
:10428000F8D016E0012C07D100213C48FDF7F9FBDE
:1042900001213A48FDF7E9FB39493F313748FDF73D
:1042A000B7FC30B13548FDF729FC28706D1C601E45
:1042B00084B2002CE6D101213048FDF7E2FBBDE8D5
:1042C000F08170B504460D4600BF4FF400312B4815
:1042D000FDF7C0FC0028F8D101212848FDF7B9FB03
:1042E00000BF27492548FDF793FC0028F9D000229C
:1042F00021462248FDF706FC00BF22491F48FDF772
:1043000087FC0028F9D001211C48FDF77EFB2946D7
:104310001A48FDF7F1FB00BF1A49891C1748FDF741
:1043200077FC0028F8D001211448FDF792FB00BF6C
:1043300013491248FDF76CFC0028F9D001222146F0
:104340000E48FDF7DFFB00BF0D49491C0B48FDF788
:104350005FFC0028F8D000210848FDF792FB0121FE
:104360000648FDF782FB0548FDF7C8FB06463046C8
:1043700070BD0000000C0140400D030000540040DF
:10438000010003008200070008B52020ADF80000FE
:1043900010208DF8030003208DF8020069465F4865
:1043A000FCF70AF9012220215C48FCF7B4F908BDAA
:1043B00010B5002413E0002220215848FCF7ABF987
:1043C0004FF4FA70FFF749FB012220215348FCF714
:1043D000A2F94FF4FA70FFF740FB601C84B2322C54
:1043E000E9DB10BD10B5002413E0002220214B486A
:1043F000FCF791F94FF44870FFF72FFB01222021C1
:104400004648FCF788F94FF44870FFF726FB601C1C
:1044100084B2B4F5C87FE8DB10BD10B5002413E00A
:10442000002220213D48FCF776F94FF49670FFF703
:1044300014FB012220213948FCF76DF94FF49670E6
:10444000FFF70BFB601C84B2C82CE9DB002411E0F1
:10445000002220213148FCF75EF9C820FFF7FDFA61
:10446000012220212D48FCF756F9C820FFF7F5FA64
:10447000601C84B2C82CEBDB002411E00022202158
:104480002648FCF748F96420FFF7E7FA01222021CB
:104490002248FCF740F96420FFF7DFFA601C84B281
:1044A000C82CEBDB10BD70B5002434E000251FE004
:1044B000002220211948FCF72EF96000184931F834
:1044C0001000184991FBF0F63046FFF7C6FA0122BA
:1044D00020211248FCF71FF96000114931F8100043
:1044E000104991FBF0F63046FFF7B7FA681C85B229
:1044F00060000B4931F81000012101EB4401084A2A
:1045000032F8111048434FF47A7190FBF1F0A84251
:10451000CEDC601C84B2272CC8DB70BD000C0140CF
:10452000C25F000820A1070008B50F20ADF8000009
:1045300048208DF8030069460148FCF73DF808BDA6
:104540000008014010B5012211037748FCF7E3F899
:104550000122D1027448FCF7DEF80120FFF77DFA52
:1045600000224FF480517048FCF7D5F80120FFF786
:1045700074FA00224FF400616B48FCF7CCF801207C
:10458000FFF76BFA10BD10B500224FF4805166485A
:10459000FCF7C1F80122D1026348FCF7BCF8012006
:1045A000FFF75BFA012211035F48FCF7B4F8012022
:1045B000FFF753FA10BD70B50446254600224FF4AC
:1045C00080515948FCF7A7F800224FF40061564883
:1045D000FCF7A1F8002628E000224FF400615248C1
:1045E000FCF799F80120FFF738FA15F0010F08D011
:1045F000012211034C48FCF78EF80120FFF72DFA39
:1046000008E000224FF480514748FCF784F801206D
:10461000FFF723FA0122D1024348FCF77CF801207E
:10462000FFF71BFA6D10701CC6B2082ED4DB0022F7
:104630004FF480513C48FCF76EF800224FF40061C3
:104640003948FCF768F870BD08B501211C20FCF75B
:1046500066FA4FF4C050ADF8000010208DF803004A
:1046600003208DF8020069462F48FBF7A5FF0122C1
:1046700011032D48FCF74FF80122D1022A48FCF71C
:104680004AF8FFF75FFF4420FFF795FFFFF77BFF36
:10469000FFF758FF8F20FFF78EFFFFF774FF08BD6D
:1046A00010B50446FFF74EFFC820FFF784FF2046F1
:1046B000FFF781FFFFF767FF10BD30B589B00446F3
:1046C0000D46202219A101A800F017FAFFF73AFFC2
:1046D00004F1C001C8B2FFF76EFF01A9485DFFF702
:1046E0006AFFFFF750FF09B030BD70B588B00446CF
:1046F0000D4620220DA1684600F0FFF9FFF722FFCA
:1047000004F1C001C8B2FFF756FF002605E01DF80E
:104710000500FFF750FF701CC6B2102EF7DBFFF745
:1047200032FF08B070BD0000000801403F065B4F3B
:10473000666D7D077F6FBF86DBCFE6EDFD87FFEF00
:104740000040586D797877383F710000F8B506461B
:104750000024002502236A4600219E20FFF744FD25
:104760009DF800400020307014F0800F05D001202B
:104770003070E043C4B2601CC4B214F0010F01D029
:10478000681CC5B214F0020F01D0A81CC5B214F009
:10479000040F01D0281DC5B214F0080F02D005F196
:1047A0000800C5B214F0100F02D005F11000C5B218
:1047B00014F0200F02D005F12000C5B214F0400F14
:1047C00002D005F14000C5B2761C357000259DF879
:1047D000014014F0200F02D005F10C00C5B214F016
:1047E000400F02D005F11900C5B214F0800F02D0BD
:1047F00005F13200C5B2761C3570F8BD10B5012246
:1048000011469E20FFF7B8FC10BD000008B501213D
:104810007C20FCF784F901210846FCF780F94FF46D
:10482000C040ADF8000010208DF8030003208DF883
:10483000020069460F48FBF7BFFE01210E48FBF757
:104840008AFF4FF4C0410B48FBF763FF08BD10B56A
:10485000044622464FF480410648FBF75CFF10BD3A
:1048600010B5044622464FF400510248FBF753FFAF
:1048700010BD000000080140000430007047000037
:104880007CB515461A460C00009001D02044401E0D
:10489000074B7B4469460190284600F0F4F9054631
:1048A0001CB10020694600F001FA28467CBD0000DA
:1048B000210400000FB4044910B503AA029800F0C7
:1048C00019FA10BC5DF814FB3000002070B50546E5
:1048D0000C46012A05D02868800600D5EA69002325
:1048E00002E0012305E05B1C934202D2E05C002859
:1048F000F9D1A869E618C01AA861286A1844286284
:10490000284600F030F904E0D5E9012114F8010B44
:104910009047B442F8D3284600F03BF970BD000040
:104920002DE9F05F4FF0000B054689464FF0010A74
:10493000C0F820B02846E968884798B3252806D0F3
:10494000D5E901219047286A401C2862F2E75A4FB6
:1049500000267F442846E96888472028044608DB6B
:10496000312C06D207EB040010F8200C08B10643E6
:10497000F0E7B00701D526F00406C5F81CB0002703
:10498000C5F818B02A2C0ED05246A4F130010A29DD
:104990002ED2BAF1000F2BD0924605EB8708C8F84B
:1049A00018101AE084E059F8041B284605EB87022A
:1049B0009161E9688847012F04461BD1E869002806
:1049C00023DA26F0200620E0D8F8180000EB80005B
:1049D00004EB40003038C8F818002846E9688847DA
:1049E000A0F1300104460A2902D2BAF1000FEBD13E
:1049F000012F0AD02E2C08D12846E96888477F1C51
:104A00000446022F46F02006BCDBA869002803DA22
:104A1000404246F00106A861F00701D026F01006DA
:104A20006C2C0AD0682C08D04C2C34D06A2C32D094
:104A3000742C30D07A2C2ED015E0E9682746284611
:104A40008847B842044609D180206C2F00D0C000AE
:104A5000E968064328468847044604E040206C2F56
:104A600000D0800006431CB3A4F14100192802D8ED
:104A7000203446F400664A46214628462E604E46BB
:104A8000FBF76EFB90B101280DD0F61D26F0070054
:104A900000F108094EE74C2C5846D9D080206A2CEA
:104AA000D6D00020D4E706F1040943E7204647E7C3
:104AB000286ABDE8F09F00000817000010B5431CED
:104AC00002E010F8011B71B18107FAD14FF00132F9
:104AD00002C88C1A8C4314EAC211F9D0C01A0A0613
:104AE00003D0C01E10BDC01A10BD0A0401D0801E24
:104AF00010BD0902FCD0401E10BD10B5203AC0F018
:104B00000B80B1E81850203AA0E81850B1E81850CE
:104B1000A0E81850BFF4F5AF5FEA027C24BFB1E80B
:104B20001850A0E8185044BF18C918C0BDE810407C
:104B30005FEA827C24BF51F8043B40F8043B08BF85
:104B40007047D20728BF31F8023B48BF11F8012B4C
:104B500028BF20F8023B48BF00F8012B7047704780
:104B600070477047704770B5044685690068302605
:104B7000C10600D42026C00708D070BDD4E90121A9
:104B800030469047206A00F1010020626D1EF5D585
:104B900070BD70B5044685690068C00708D170BD56
:104BA000D4E9012120209047206A00F10100206211
:104BB0006D1EF5D570BD09684A0501D540B2704734
:104BC000C905FCD500B2704709684A0501D5C0B2D5
:104BD0007047C905FCD580B2704700002DE9F0414F
:104BE0008046002610687529414615A512D0FFF7AA
:104BF000E2FF002803DAC0F1000012A508E0D8F8AF
:104C000000108A0701D510A502E0490704D50FA5B9
:104C1000012601E0FFF7D8FF002408F1240704E093
:104C200000F07EFC30313955641C0028F8D1334641
:104C30002A4621464046BDE8F04100F0D6B90000C2
:104C4000000000002D0000002B00000020000000EC
:104C500011680268006A530501D508700BE0D3059E
:104C600001D5088007E0130603D5C217C1E9000289
:104C700001E05206086001207047000001694A1CEB
:104C800002610878704700B58FB0CDE9013100218D
:104C9000059105497944CDE9031011466846FFF7AF
:104CA0003FFE0FB000BD0000E5FFFFFF0A6802F8FD
:104CB000010B0A607047D1E900239A4202D2531CCB
:104CC0000B601070704710B5436913B1AFF30080EB
:104CD00001E0FFF7FBFD012010BD126800F1240187
:104CE0000A7000224A700122EDE711684FF0FF328E
:104CF000E9E70000074B70B50C467B44FFF7C3FFA4
:104D00000546204600F0E8FB10B14FF0FF3070BDC3
:104D1000284670BDB9EEFFFF2DE9FF5F04468A46C5
:104D20001546DFF8AC80F8440027D8E900103E466D
:104D3000CDE9001011E03AF816106A4602A800F01A
:104D4000CFFB411C07D02168890603D5E2693918D9
:104D500091420ED8074406F101062068800602D56C
:104D6000E069B84205DDAE42E5DB3AF816000028FE
:104D7000E1D1A069C01BA0612046FFF7F4FED8E98D
:104D80000010CDE90010002016E03AF818106A462D
:104D900002A800F0A5FB8146401C0BD000250DF1B8
:104DA000080B05E0D4E901211BF8050090476D1CB4
:104DB0004D45F7D308F10100B0428046E5DB206A9B
:104DC000384420622046FFF7E4FEBDE8FF9F000064
:104DD000461300002DE9F0418046D21D22F0070263
:104DE0000026D2E90002F52914A512D0002A06DA1D
:104DF0000023D0EB030063EB020211A508E0D8F812
:104E000000108B0701D50FA502E0490701D50EA5BB
:104E100001261146002408F1240704E000F0A0F860
:104E200030323A55641C50EA0102F7D133462A4623
:104E300021464046BDE8F04100F0D7B80000000030
:104E40002D0000002B0000002000000030B40021E5
:104E500000F124040CE002F0070505F130054FEAEB
:104E6000D20242EA4372655401F101014FEAD303D1
:104E700052EA0305EFD10468002310A2250708D5E4
:104E800004F020040C4304D0C46901230CA2641E66
:104E9000C46130BC00F0A9B810B5044621461068C2
:104EA000FFF792FE02462046BDE810400023CDE702
:104EB000D21D22F00701D1E90023C7E7000000005E
:104EC00030000000F0B40F460168090502D5234CFC
:104ED0007C4402E0214C7C440E34002100F1240586
:104EE0000BE002F00F064FEA1212A65D42EA0372CF
:104EF0004FEA13136E5401F1010152EA0306F0D197
:104F0000224604680023240704D5702F05D009B178
:104F100011320223F0BC00F068B810320123F9E727
:104F200070B504460D4621461068FFF74DFE024657
:104F300029462046BDE870400023C3E7D21D22F079
:104F40000703D3E90023BDE70368126843F0200399
:104F500003600823C3610023B4E70000A41100002C
:104F600030B5B0F10A024FEA900E71F100034EEA3B
:104F7000817EB0EB0E0061EB91014FEA101E4EEA0C
:104F8000017E10EB0E0041EB11114FEA102E4EEA9C
:104F9000016E10EB0E0041EB11214FEA104E4EEA6C
:104FA000014E10EB0E0041EB1141401841F10001A0
:104FB0004FEAD00040EA41704FEAD10110EB800582
:104FC0004FEA810444EA907444EB01046D1944EB08
:104FD0000404521BA3414FF0000348BF0A3200D51E
:104FE00030BD401C41F1000130BD2DE9F0470D46B8
:104FF00004469246994600F124080168880604D5C3
:10500000E06921F01001216000E001200027A842A2
:1050100001DDA0EB0507A16907EB050202EB030028
:10502000A1EB0000A0612068C00602D42046FFF773
:105030009AFD002608E0D4E901211AF806009047FD
:10504000206A401C761C20624E45F4DB2068C006B6
:105050000AD52046FFF787FD06E0D4E9012130207C
:105060009047206A401C2062381EA7F10107F4DC3B
:1050700007E0D4E9012118F805009047206A401C98
:105080002062281EA5F10105F3DC2046FFF781FD13
:1050900021680220090600D40120BDE8F08770478E
:1050A0002DE9FF4F0C461E464FF0FF3789B0D2E97D
:1050B0000001DDF8588006908946C1F30A5505B90C
:1050C0003D46002108464FF00000B9F1000F00F402
:1050D000400005DA00EB80004FF4400101EA500087
:1050E0004FEA905ABAF1010F00DDBA46069850EA2D
:1050F00049002CD044F61050A5F2FF354543CAF1C3
:10510000000008902F14B8F1000F39D07542089AAA
:10511000291E00DC524600DA694203A800F07AFA40
:105120000699484600F03CFB8DE80700A0F50050CA
:105130001F3800900398002D25DD42F21F015246D2
:10514000084403A90390684600F09BFD24E0B8F1F1
:10515000010F4FF0000001D1F24307E0302101E0E0
:105160002154401CB042FBDB304600220021215478
:105170000999C1F80880C1E900200DB0BDE8F08FA1
:10518000BD1B6D1CC3E7A0F5005052461F3803A994
:105190000390684600F089FD8DE807000004000CCC
:1051A00003D04FF0FF30410800E01046B8F1000F87
:1051B00003D00022009215461FE0751E06D4FFF7AB
:1051C000CFFE02F1300262556D1EF8D5B3460122C2
:1051D000084302D000227F1C04E02078302801D14F
:1051E00000227F1E002A07978DD01DE0112D07DABF
:1051F000FFF7B6FE303262556D1C50EA0102F5D160
:1052000008430FD10021681E05E0235C625C6354F3
:10521000491C2254401E8142F7DBAB46A81B401EAE
:10522000079001E0009848B1002004F80B000998AD
:10523000079AC0F80880C0E9002B9EE711264FF0BE
:10524000000860E72DE9F04F88460446D21D22F0A1
:10525000070191B0D1E90001CDE90C0100F05BFE3E
:1052600002460D98C10F4FF02D0006D121682B206A
:105270008B0702D4202000EAC100032A834601D014
:10528000072A05DB03464146204600F085F90AE17E
:105290002068800601D5E76900E006271120B8F1F3
:1052A000650F06D0B8F1660F11D0B8F1670F67D15E
:1052B00028E00023112F009300DA781C03460CAA83
:1052C00001A909A8FFF7ECFE00267D1C3FE00123A1
:1052D0004FF000490CAA01A909A800933B46FFF72B
:1052E000DFFEDDE90A50002620B9099907F1010027
:1052F00001EB0005781B02D47D1CC0F1FF36A5EB45
:10530000070A3DE0012F00DA01270023112F009347
:1053100000DC384603460CAA01A909A8FFF7C0FE25
:1053200020683D46002600070BD40A98A84200DA00
:10533000054601A8012D04DD411911F8011C302991
:1053400009D00998B84202DA10F1040F05DA4FF0DB
:10535000010A099813E06D1EECE7002802DC2D1A03
:10536000064405E0401CA84202DD099D05F1010547
:105370000998A0EB060000F1010A4FF000408146B9
:105380002068000703D4AA4501DB4FF0FF3A002054
:10539000B9F1004F0DF13F078DF83F0024D04FF0D9
:1053A00002082B20B9F1000F00900BDA2D20C9F173
:1053B0000009009006E0484600F0B2F8303181461E
:1053C00007F8011DB8F10001A8F10108F3DCB9F1FB
:1053D000000FF0D1009807F8010D2168452009055C
:1053E00000D4652007F8010D0EA8A0EB070000F11E
:1053F00007085FEA0B0000D0012000EB050101EB7C
:10540000EA7101EB0800A169A1EB0000A0F1010025
:10541000A0612068C00602D42046FFF7A4FB5FEA23
:105420000B0006D0D4E901219047206A00F1010069
:1054300020622068C00621D52046FFF794FB1DE0BE
:10544000002E05DB0A98B04202DD01A8805D00E075
:105450003020D4E901219047206A761C401CBAF123
:10546000010A20620AD100F091F8C0680168405C2E
:10547000D4E901219047206A401C2062281EA5F132
:105480000105DDDC07E0D4E9012117F8010B9047A5
:10549000206A401C2062B8F10001A8F10108F2DC8A
:1054A0002046FFF776FB022011B067E610B543698E
:1054B00013B1AFF3008001E0FFF72EFC012010BD17
:1054C000126800F1240182840022C2840122EDE7E7
:1054D00011684FF0FF32E9E7C06800F080007047C4
:1054E00070B505460C46164600F048F8036893F878
:1054F0000101012806D0FF2C0FD8185D68B10120EA
:105500002C7070BDD3F8070132462146034428466B
:10551000BDE8704003F2071318474FF0FF3070BD2D
:105520004FF00A01B0FBF1F202FB11011046704787
:10553000754600F0EBF8AE4605006946534620F08C
:105540000700854618B020B5FCF7CEFBBDE820402B
:105550004FF000064FF000074FF000084FF0000B2F
:1055600021F00701AC46ACE8C009ACE8C009ACE8E2
:10557000C009ACE8C0098D467047000010B500F0C6
:1055800005F8001D10BD00BFE50900000148704787
:10559000704700BF280100202DE9F04104461F4656
:1055A00003260168072A01F4006003DB15A520B972
:1055B00015A502E015A500B915A521F01000206081
:1055C000A069C01EA0610FB1401EA0612046FFF778
:1055D000CAFA4FB1D4E9012138469047206A401CED
:1055E0002062C01C206206E0206AFAE7D4E90121AB
:1055F00015F8010B9047761EF8D22046FFF7C9FA3E
:10560000BDE8F0814E414E006E616E00494E46008D
:10561000696E66002DE9F047814616468AB0374824
:105620007844D0E9002380680092CDE90130334806
:1056300078440C38D0E9022300690392CDE90430A4
:1056400041F69B334FF0370001EB0302194492FB04
:10565000F0F591FBF0F2A5F1800500FB12141B3C64
:1056600002D56442012000E00020DFF890A08046CF
:105670000027FA44AAF1CE0A0DE0E00709D032462D
:10568000684607EB47010AEB810100F00EFB8DE84D
:10569000070064107F1C002CEFD1184F7F44BC3FE3
:1056A00017E0E80713D007EB04100DF1180A90E893
:1056B0000E00AAE80E00C068F04201D198190890C7
:1056C000324606A903A800F0F0FA03AB07C36D1039
:1056D000641C002DE5D132466946B8F1000F03A8DD
:1056E00002D000F0CEFA01E000F0DFFAC9E90001D3
:1056F000C9F808200AB0BDE8F0870000F80A0000E9
:105700000446AFF300802046FAF78FFD004870474B
:10571000080100204FF0013C50F8042B51F8043BE5
:105720009A4221D1A2EB0C03934313EACC1317D175
:1057300050F8042B51F8043B9A4215D1A2EB0C030C
:10574000934313EACC130BD150F8042B51F8043BCC
:105750009A4209D1A2EB0C03934313EACC13DBD09A
:105760004FF00000704700BFD01A01BAB1FA81F1C2
:1057700001F0180122FA01F0CB40C1F12001DBB2A7
:10578000C0B2C01A2CFA01F3D11A914311EAC31125
:10579000E6D1704701487047704700BF0C010020F8
:1057A0005FEA400C08BF91F0000F4FEA8C234FEAEC
:1057B000C12243EA51514FEA1C5018BF00F5F04096
:1057C0004FEA300018BF41F000415FEA6C5C00F026
:1057D0002980BCF1FF3F08BF40F080407047130CA8
:1057E00006BF12044FF0100C4FF0000C130E04BF54
:1057F00012020CF1080C130F04BF12010CF1040C7F
:10580000930F04BF92000CF1020CD30F04BF52009F
:105810000CF1010C11464FF00002A0F11F00A0EBAB
:105820000C00704711F0004F08BF704731F0004185
:105830003FF4D5AF0B0C06BF09044FF0100C4FF02E
:10584000000C0B0E04BF09020CF1080C0B0F04BF77
:1058500009010CF1040C8B0F04BF89000CF1020C40
:10586000CB0F04BF49000CF1010CCCF12003A0EBDD
:105870000C0022FA03F302FA0CF241EA030100F1F0
:105880000100704720F07F4C80EA030023F07F473F
:10589000ACEB070303F57C5300F0004003F1FF037A
:1058A0002DE980494FEA154B09B44FEA144325EA24
:1058B0000B4E24EA03480FF2042606EB132749088F
:1058C0003E785FEA320203FB0667C7F5000707FB75
:1058D00006F64FEA54374FEAD64606F1020607FBB2
:1058E000066CCCF1005C4FEA1C472CEA074C07FB26
:1058F00006F40CFB06F504EB15464FEA961634BF8A
:1059000000204FF000404FEAD13706FB07FC4FEA7A
:105910001C4C0CFB0BF7D21B03FB0CF761EB0701D4
:105920000CFB0EF7B0EB074072EB17420CFB08F7CD
:1059300034BFA2EB0742B2EB074261EB17414FEADB
:105940000C444FEA910706FB07FC4FEA1C4C0CFB8A
:105950000BF7B0EBC74072EB573203FB0CF734BFC9
:10596000A2EBC742B2EBC74261EB57310CFB0EF71B
:10597000B0EBC70072EB57720CFB08F734BFA2EB19
:10598000C702B2EBC70261EB5771039F4FEA816117
:1059900041EA921104EBCC044FEAD1374FEA82621C
:1059A00006FB07FC42EA90124FEA80604FEA1C4C6B
:1059B0000CFB0BF7D21B03FB0CF761EB07010CFB95
:1059C0000EF7B0EB074072EB17420CFB08F734BF41
:1059D000A2EB0742B2EB074261EB17414FEA8C554D
:1059E0004FEA910704EB9C2406FB07FC4FEA1C4C92
:1059F0000CFB0BF7B0EBC74072EB573203FB0CF715
:105A000034BFA2EBC742B2EBC74261EB57310CFB8C
:105A10000EF7B0EBC70072EB57720CFB08F734BF00
:105A2000A2EBC702B2EBC70261EB577115EB4C2535
:105A30004FEA816141EA92114FEA82624FEAD1371F
:105A400042EA901206FB07FC44F100044FEA806032
:105A50004FEA1C4C0CFB0BF7D21B03FB0CF761EB62
:105A600007010CFB0EF7B0EB074072EB17420CFB83
:105A700008F734BFA2EB0742B2EB074261EB1741D4
:105A800015EB1C154FEA813141EA92414FEA82320F
:105A900042EA90424FEA80304FEA0C7644F100042B
:105AA00048EA03434EEA0B484FF0000EB2EB080CF5
:105AB00071EB030724BF624639464EEB0E0E4FF0E2
:105AC000000B0018524149414BEB0B0BB2EB080C99
:105AD00071EB03077BF1000B24BF624639464EEBA6
